:100000000C94460018950000189500001895000003
:10001000189500001895000018950000189500002C
:10002000189500001895000018950000189500001C
:10003000189500001895000018950000189500000C
:1000400018950000189500000C94EC01189500001C
:1000500018950000189500001895000018950000EC
:1000600018950000189500001895000018950000DC
:1000700018950000189500000C94180218950000BF
:100080001895000018950000189500008FEF8DBF9F
:10009000C0EEE8ED4E2E80E18EBFD0E1F0E15F2EA4
:1000A000EEEFFFE0A0E0B1E088278D933197E9F70C
:1000B00087E689B980E08093900088E18AB90E9440
:1000C000490166248FEF87BB8FEF8ABB87E689B92A
:1000D00080E08093900086E08093950087E680938F
:1000E000990080E08093980086E080939D0088E1ED
:1000F00080939A007894579A80919A0080688093B0
:100100009A00D89A84E690E00E94C401E6E6F5E001
:100110000E94E3010E94F5000E94FC00AFE1B1E003
:100120008C9180FBA8E3B0E08C9181F98C9381E005
:1001300080932101A1E2B1E08C918F5F8C930091BB
:100140002101083011F00C94AC000E940301ADE1D4
:10015000B1E08C930C94B1000E940301AEE1B1E0D8
:100160008C93009121010B3011F00C949A000091B6
:100170001D01003018F011F00C94C0000C94D00058
:100180000E9434010E9434018FE711E00E94430174
:10019000A0ECB0E1EDE1F1E00E9469020E942C01C7
:1001A00084EF91E00E94C401AFE1B1E00D911C9198
:1001B000003050E015071CF011F00C94E1000C9495
:1001C000E90080E090E0AFE1B1E08D939C930C9466
:1001D000EF0081E090E0AFE1B1E08D939C930C944F
:1001E0008E0008950895F894FFCF0E94D301802DCA
:1001F00011F005D0FACF08958DE001D08AE05D9B23
:10020000FECF8CB9089580911C01882309F40895CC
:100210007F930F929F93AF93BF9380911C0188238C
:10022000E1F3F89480911C018A9580931C019091D0
:100230001A01AFE0B1E0A90F0024B01D8C91939595
:100240009B3009F4992790931A017894BF91AF914C
:100250009F910F907F910895A0ECB0E18D9188233C
:1002600011F05FD0FBCF089581E061D00FD080E81E
:100270005EC08FE7213039F08FEB223021F08FE81C
:10028000233009F08FEC810F0C94970183E09927BC
:100290007BC08AEF90E00E94C401BF9ABE9ABD9ACB
:1002A000BC9ABB9ABA9AC29885E090E00E94C401B9
:1002B000C398C798C698C59AC49AC39AEF93FF93F8
:1002C000ECE8F1E00E94B801FF91EF91C39859D09A
:1002D000C39AEF93FF93ECE8F1E00E94B801FF911D
:1002E000EF91C3984ED0C39AEF93FF93ECE8F1E0FF
:1002F0000E94B801FF91EF91C39843D0C498C39A6C
:10030000EF93FF93ECE8F1E00E94B801FF91EF91C9
:10031000C39837D088E20BD08EE009D086E007D0B2
:100320000895C29A829505D004D02BD00895C29822
:10033000F9CF859510F4C49A01C0C498859510F43E
:10034000C59A01C0C598859510F4C69A01C0C69893
:10035000859510F4C79A01C0C798C39AEF93FF938D
:10036000ECE8F1E00E94B801FF91EF91C398089585
:100370003197F1F70895689462F80895E89462F867
:10038000089581E090E000C0EF93FF93EE27E82B03
:10039000E92B31F0E0EAFFE03197F1F70197D1F76F
:1003A000FF91EF910895D895319628F48F938BB7EC
:1003B00083958BBF8F91002008950F9301E00BBFB1
:1003C0000F91889408950F930027F9CF0F9302E0BF
:1003D000F6CF0F9303E0F3CF7F930F93AF93BF93C9
:1003E0008F939F938FB78F9380910E010BE0081B23
:1003F00021F49CB10E94BB0112C000910D01A1E04B
:10040000B1E077279CB1A00FB71F9C938395809391
:100410000E0103950B3009F4002700930D018F9115
:100420008FBF9F918F91BF91AF910F917F91189541
:100430007F930F93AF93BF938F939F938FB78F93B8
:10044000E89480911C010BE0081B29F490919C001A
:100450000E94BB0114C000911B01AFE0B1E07727FF
:1004600090919C00A00FB71F9C93689483958093F4
:100470001C0103950B3009F4002700931B019134F4
:1004800011F40E94F1008F918FBF9F918F91BF91C6
:10049000AF910F917F911895000F111F221F331FED
:1004A000089500951095209530950F5F1F4F2F4FA1
:1004B0003F4F0895019110810EC00191119121913A
:1004C00030810BC00191108117FF05C03FEF2FEF66
:1004D00004C0008111272227332737FF03C0E1DF43
:1004E0008DE28D93CF93DF93CF92DF92EF92AA2488
:1004F000BB24CC24DD24EE2440E2CAE0DD2755E015
:1005000093E38881890F87FD9F7083FD907F891B0E
:1005100089935A95A9F7C0DFAA1CBB1CCC1CDD1C13
:10052000EE1C4A9551F7E894EFE0FF2782910ED038
:10053000EB30E0F71EF068948A2D0CD088278D935D
:10054000EF90DF90CF90DF91CF910895982F829513
:1005500001D0892F8F70805D26F0803309F40895D3
:1005600068948D930895507265737320616E79203D
:10057000616C706861206E756D65726963616C2075
:040580006B6579002E
:00000001FF
