:100000000C94460018950000189500001895000003
:10001000189500001895000018950000189500002C
:10002000189500001895000018950000189500001C
:10003000189500001895000018950000189500000C
:1000400018950000189500000C944A0418950000BB
:1000500018950000189500001895000018950000EC
:1000600018950000189500001895000018950000DC
:1000700018950000189500000C947604189500005F
:100080001895000018950000189500008FEF8DBF9F
:10009000C0EEE8ED4E2E80E18EBFD0E1F0E15F2EA4
:1000A000EEEFFFE0A0E0B1E088278D933197E9F70C
:1000B00087E689B980E08093900088E18AB90E9440
:1000C0009E0366248FEF81BB8FEF87BB8FEF82B9D2
:1000D0008FEF8ABB80E080936100139A149A83EFBC
:1000E00080938B0081E080938A0087E086B980E46A
:1000F00087B987E689B980E08093900086E0809395
:10010000950087E68093990080E08093980086E0D0
:1001100080939D0088E180939A0084E690E00E949D
:100120001904379A81E080938A007894579A8091D5
:100130009A00806880939A000E9489030E94890334
:10014000919A949A959A969A979A909AD89AE6E163
:10015000FAE00E9441040E9443030E944A0386E49D
:10016000806487B90E942804AAE0B1E08D939C9333
:1001700087E4806487B90E942804ACE0B1E08D93E5
:100180009C9384E4806487B90E942804AEE0B1E0C7
:100190008D939C9385E4806487B90E942804A0E134
:1001A000B1E08D939C9381E4806487B90E94280418
:1001B000A2E1B1E08D939C938FE711E00E94980338
:1001C000E4E3FAE00E9441040E948203A0ECB0E163
:1001D000E0E1F1E00E94B2040E947A03E6E3FAE073
:1001E0000E9441040E948203A0ECB0E1ECE0F1E047
:1001F0000E94B2040E947A03EAE3FAE00E944104FA
:100200000E948203A0ECB0E1E2E1F1E00E94B204BE
:100210000E947A0381E090E00E9419048FEB11E0C4
:100220000E949803EEE3FAE00E9441040E948203D8
:10023000A0ECB0E1EAE0F1E00E94B2040E947A038F
:10024000E2E4FAE00E9441040E948203A0ECB0E1E3
:10025000EEE0F1E00E94B2040E947A0381E090E0B7
:100260000E941904AAE0B1E00D911C91053451E0FF
:10027000150781E008F480E08F93ACE0B1E00D91C8
:100280001C91083152E0150781E008F480E09F914D
:1002900089238F93AEE0B1E00D911C910A3F51E0AC
:1002A000150781E008F480E09F9189238F93A0E1F6
:1002B000B1E00D911C91013F52E0150781E008F477
:1002C00080E09F9189238F93A2E1B1E00D911C9171
:1002D0000E3E52E0150781E008F080E09F918923EF
:1002E0008F930027A0E2B0E08C9180FB0EF401E038
:1002F00040E0041781E009F080E09F918923882382
:1003000011F40C9493010E94C00282E593E0A1E0F5
:10031000B1E08D939C9382E593E0A3E0B1E08D93EF
:100320009C930C949301AAE0B1E00D911C910534CB
:1003300051E0150710F00C94AD010E94C00280E05E
:1003400090E0A1E0B1E08D939C9382E593E0A3E07F
:10035000B1E08D939C930C941B02ACE0B1E00D9145
:100360001C91083152E0150710F00C94C7010E944F
:10037000C00282E593E0A1E0B1E08D939C9380E020
:1003800090E0A3E0B1E08D939C930C941B02AEE04F
:10039000B1E00D911C910A3F51E0150781E008F092
:1003A00080E08F93A2E1B1E00D911C910E3E52E0EE
:1003B000150781E008F480E09F918923882311F4D8
:1003C0000C94F2010E94C00280E090E0A1E0B1E054
:1003D0008D939C9384E893E0A3E0B1E08D939C938C
:1003E0000C941B02A0E1B1E00D911C91013F52E081
:1003F000150781E008F080E08F93A2E1B1E00D9154
:100400001C910E3E52E0150781E008F480E09F91B8
:100410008923882311F40C941B020E94C00284E8F3
:1004200093E0A1E0B1E08D939C9380E090E0A3E0A5
:10043000B1E08D939C93A2E1B1E00D911C910E3E31
:1004400052E0150781E008F080E08F93ACE0B1E066
:100450000D911C91083152E0150781E008F080E011
:100460009F9189238F93A0E1B1E00D911C91013FF1
:1004700052E0150781E008F080E09F9189238823EE
:1004800011F40C9455020E94C00288EE93E0A1E0A2
:10049000B1E08D939C9380E090E0A3E0B1E08D9378
:1004A0009C938AE397E00E941904ACE1B1E08C913F
:1004B00080FBA8E3B0E08C9181F98C9381E080937C
:1004C0001E01AEE1B1E08C918F5F8C9300911E0113
:1004D000083011F00C9473020E945103AAE1B1E0BC
:1004E0008C930C9478020E945103ABE1B1E08C93A1
:1004F00000911E010B3011F00C94610200911A0161
:10050000003018F011F00C9487020C9497020E94AE
:1005100089030E9489038FE711E00E949803A0ECF1
:10052000B0E1EAE1F1E00E94C1040E947A0384EFA5
:1005300091E00E941904ACE1B1E00D911C910030F2
:1005400050E015071CF011F00C94A8020C94B002B6
:1005500080E090E0ACE1B1E08D939C930C94B60206
:1005600081E090E0ACE1B1E08D939C930C94AF00FE
:1005700008950895F894FFCF8FEF82BB1B9A1C9AC1
:10058000A1E0B1E00D911C91003050E0150711F091
:100590000C94CE021A981D980C94F902A1E0B1E0D7
:1005A0000D911C91003050E015071CF011F00C94D7
:1005B000DB020C94EB021A981D9A0FEF13E0A1E0F6
:1005C000B1E04D915C91041B150BA1E0B1E00D93DE
:1005D0001C930C94F9021A9A1D980FEF13E0A1E0F6
:1005E000B1E04D915C91040F151FA1E0B1E00D93B6
:1005F0001C93A3E0B1E00D911C91003050E0150771
:1006000011F00C9407031E981F980C943203A3E07A
:10061000B1E00D911C91003050E015071CF011F075
:100620000C9414030C9424031E9A1F980FEF13E0EC
:10063000A3E0B1E04D915C91041B150BA3E0B1E088
:100640000D931C930C9432031E981F9A0FEF13E026
:10065000A3E0B1E04D915C91040F151FA3E0B1E060
:100660000D931C93A1E0B1E08D919C91A6E8B0E0C0
:100670008D939C93A3E0B1E08D919C91A4E8B0E0B0
:100680008D939C9308950E943104802D11F005D024
:10069000FACF08958DE001D08AE05D9BFECF8CB942
:1006A000089580913A01882309F408957F930F9269
:1006B0009F93AF93BF9380913A018823E1F3F8941D
:1006C00080913A018A9580933A0190913801ADE288
:1006D000B1E0A90F0024B01D8C9193959B3009F4D3
:1006E0009927909338017894BF91AF919F910F9083
:1006F0007F910895A0ECB0E18D91882311F066D030
:10070000FBCF08950E943104802D11F05FD0FACF05
:10071000089581E061D00FD080E85EC08FE721307E
:1007200039F08FEB223021F08FE8233009F08FEC85
:10073000810F0C94EC0383E099277BC08AEF90E053
:100740000E941904BF9ABE9ABD9ABC9ABB9ABA9AE3
:10075000C29885E090E00E941904C398C798C69893
:10076000C59AC49AC39AEF93FF93ECE8F1E00E9414
:100770000D04FF91EF91C39859D0C39AEF93FF9363
:10078000ECE8F1E00E940D04FF91EF91C3984ED088
:10079000C39AEF93FF93ECE8F1E00E940D04FF9100
:1007A000EF91C39843D0C498C39AEF93FF93ECE8BA
:1007B000F1E00E940D04FF91EF91C39837D088E2D9
:1007C0000BD08EE009D086E007D00895C29A8295BA
:1007D00005D004D02BD00895C298F9CF859510F498
:1007E000C49A01C0C498859510F4C59A01C0C598F3
:1007F000859510F4C69A01C0C698859510F4C79ADD
:1008000001C0C798C39AEF93FF93ECE8F1E00E9410
:100810000D04FF91EF91C39808953197F1F7089572
:10082000689462F80895E89462F8089581E090E091
:1008300000C0EF93FF93EE27E82BE92B31F0E0EABD
:10084000FFE03197F1F70197D1F7FF91EF9108950C
:10085000369A3699FECF369A3699FECF84B195B145
:100860000895D895319628F48F938BB783958BBFD5
:100870008F91002008950F9301E00BBF0F91889492
:1008800008950F930027F9CF0F9302E0F6CF0F934F
:1008900003E0F3CF7F930F93AF93BF938F939F9317
:1008A0008FB78F9380912C010BE0081B21F49CB132
:1008B0000E94100412C000912B01AFE1B1E0772734
:1008C0009CB1A00FB71F9C93839580932C01039537
:1008D0000B3009F4002700932B018F918FBF9F915C
:1008E0008F91BF91AF910F917F9118957F930F9347
:1008F000AF93BF938F939F938FB78F9380913A015C
:100900000BE0081B29F490919C000E94100413C076
:1009100000913901ADE2B1E0772790919C00A00FE2
:10092000B71F9C93839580933A0103950B3009F48C
:100930000027009339018F918FBF9F918F91BF91B5
:10094000AF910F917F911895000F111F221F331F38
:10095000089500951095209530950F5F1F4F2F4FEC
:100960003F4F0895019110810EC001911191219185
:1009700030810BC00191108117FF05C03FEF2FEFB1
:1009800004C0008111272227332737FF03C0E1DF8E
:100990008DE28D93CF93DF93CF92DF92EF92AA24D3
:1009A000BB24CC24DD24EE2440E2CAE0DD2755E060
:1009B00093E38881890F87FD9F7083FD907F891B5A
:1009C00089935A95A9F7C0DFAA1CBB1CCC1CDD1C5F
:1009D000EE1C4A9551F7E894EFE0FF2782910ED084
:1009E000EB30E0F71EF068948A2D0CD088278D93A9
:1009F000EF90DF90CF90DF91CF910895982F82955F
:100A000001D0892F8F70805D26F0803309F408951E
:100A100068948D930895507265737320616E792088
:100A2000616C706861206E756D65726963616C20C0
:100A30006B65790034002F3200002F350000413102
:080A40002000204133200000DA
:00000001FF
